{
  "contractName": "SimpleStorage",
  "abi": [
    {
      "constant": false,
      "inputs": [
        {
          "name": "x",
          "type": "uint256"
        }
      ],
      "name": "set",
      "outputs": [],
      "payable": false,
      "stateMutability": "nonpayable",
      "type": "function",
      "signature": "0x60fe47b1"
    },
    {
      "constant": true,
      "inputs": [],
      "name": "get",
      "outputs": [
        {
          "name": "",
          "type": "uint256"
        }
      ],
      "payable": false,
      "stateMutability": "view",
      "type": "function",
      "signature": "0x6d4ce63c"
    }
  ],
  "bytecode": "0x608060405234801561001057600080fd5b5060da8061001f6000396000f3fe6080604052348015600f57600080fd5b5060043610604f576000357c01000000000000000000000000000000000000000000000000000000009004806360fe47b11460545780636d4ce63c14607f575b600080fd5b607d60048036036020811015606857600080fd5b8101908080359060200190929190505050609b565b005b608560a5565b6040518082815260200191505060405180910390f35b8060008190555050565b6000805490509056fea165627a7a723058209f55f7465327eaba768ffcf14a0cb2142a9539a4f2c88a5d4b1396b83244ebc70029",
  "source": "pragma solidity ^0.5.0;\n\n/// import \"node_modules/openzeppelin-solidity/contracts/token/ERC721/ERC721.sol\";\n\ncontract SimpleStorage {\n  uint storedData;\n\n  function set(uint x) public {\n    storedData = x;\n  }\n\n  function get() public view returns (uint) {\n    return storedData;\n  }\n}\n",
  "sourcePath": "C:/Users/Tasha/Documents/Beruf_+_Lernen/WIN/5/INT/BlockFrame/blockframe/contracts/SimpleStorage.sol",
  "compiler": {
    "name": "solc",
    "version": "0.5.2+commit.1df8f40c.Emscripten.clang"
  },
  "schemaVersion": "3.0.2",
  "updatedAt": "2019-10-25T09:31:24.144Z",
  "devdoc": {
    "methods": {}
  },
  "userdoc": {
    "methods": {},
    "notice": "import \"node_modules/openzeppelin-solidity/contracts/token/ERC721/ERC721.sol\";"
  }
}